:060000000A128A11122809
:10000800FE00030EFA000408FB000A08FC00831235
:1000180003137F08FD000A128A114A2D0A128A1159
:10002800D02E203083120313D1000130D200831662
:1000380003138C158B170B170A128A1135260A120F
:100048008A110A128A11E7240A128A112B288312AC
:1000580003131410831603131413831203131416B3
:100068008316031394138312031394160130831613
:1000780003138800BA3083120313B8003808CA0083
:100088000A30B8003808C3004308B800013003102C
:10009800B80DFF3E031D4B280310380DB900390871
:1000A800C20042084A07B8003808BE005D2A0A1292
:1000B8008A110C260A128A1132300A128A111B255B
:1000C8000A128A1183120313C50127290A128A11F9
:1000D800A6250A128A11831203134508B8000130B5
:1000E8000310B80DFF3E031D74280310380DB90026
:1000F8003908C1004E08A3004D08A2004C08A10011
:100108004B08A0000030A7000030A6000030A50072
:100118000530A4000A128A1158240A128A1183127F
:1001280003132308B0002208AF002108AE002008FE
:10013800AD004108B8003808B1000A128A117822C7
:100148000A128A11831203134508093A031DAD28C0
:10015800AE28BA280A128A110C260A128A113230DD
:100168000A128A111B250A128A11BA28831203134C
:10017800C80104304802031CC228C328C528062920
:10018800062941084807B800B901B90D38085107D0
:10019800BA0039080318390A5207BB003A08840024
:1001A80083173B1C83130008BC00BD013C08A0005A
:1001B8003D08A1000A128A11AD260A128A1183127B
:1001C800031320080A128A11C5260A128A118312FB
:1001D8000313C808031DF128F228F9282E300A1243
:1001E8008A11C5260A128A11F928013083120313CD
:1001F800B8003808C80704304802031C0429052938
:10020800C528062956300A128A11C5260A128A11EB
:1002180020300A128A11C5260A128A113330831235
:100228000313BA00BC30B9001030B800B80B1A2953
:10023800B90B1A29BA0B1A29013083120313B80013
:100248003808C507272943084502031C2C292D29EE
:100258006A282E295208D001D0075108CF01CF07AC
:1002680083294A083F39FF3A013E403EB800380822
:10027800C4004403FF3A4207B8003808C7000A120E
:100288008A11A0260A128A11831203134A08B80099
:10029800B9013808A6003908A70044080A128A11CB
:1002A800A4240A128A11831203134408B8003808D8
:1002B800CA07403047020318622963297E290A12B7
:1002C8008A11A0260A128A11831203134A08B80059
:1002D800B9013808A6003908A70047080A128A1188
:1002E800A4240A128A11831203134708B800380895
:1002F800CA0783294708B8003808C20083293E087E
:100308004A02031C8829892935298A290A128A114F
:100318000C260A128A1144300A128A111B250A1265
:100328008A11742A972900300A128A11B9260A12EA
:100338008A1101300A128A111B250A128A118312A6
:100348000313C601442A4608B800B9010310B80DC2
:10035800B90D0310B80DB90D4A083807BF003908A0
:100368000318390AC0004008A301A3073F08A201E7
:10037800A2073F08033EA40040080318013E003EC0
:10038800A5000A128A119F230A128A1183120313E5
:100398004608083A031DD129D229EA293330BA0080
:1003A800BC30B9001030B800B80BD829B90BD8291F
:1003B800BA0BD8290A128A110C260A128A1101309E
:1003C8000A128A111B250A128A11EA2983120313B9
:1003D800C90104304902031CF229F329F529312AFD
:1003E800312A49085107B800003003180130520774
:1003F800B900380884008317391C83130008BA0031
:10040800BB013A08A0003B08A1000A128A11AD26D8
:100418000A128A118312031320080A128A11C526A8
:100428000A128A1183120313C908031D1C2A1D2AE4
:10043800242A2E300A128A11C5260A128A11242A61
:10044800013083120313B8003808C9070430490281
:10045800031C2F2A302AF529312A56300A128A110C
:10046800C5260A128A1120300A128A11C5260A12D4
:100478008A11013083120313B8003808C607442ACA
:1004880043084602031C492A4A2AA7294B2A1A303C
:10049800BA005E30B9008630B800B80B512AB90BE3
:1004A800512ABA0B512A000097299729742A742ACD
:1004B800742A031083120313081803140030031856
:1004C8000130B800B9013908003A03196C2A742AB6
:1004D8003808003A03195B28013A03199729742A46
:1004E800742A0A128A11122883120313B7010430DE
:1004F8003702031C802A812A832A732B732B310825
:100508003707B200B301B30D32085107B4003308FE
:100518000318330A5207B500340884008317351CC2
:10052800831380010130B2003208B7070430370264
:10053800031C9F2AA02A832A732B732B00303002B6
:10054800031DB02A00302F02031DB02A03302E02EB
:10055800031DB02AE8302D02031CB32AB42AE22A6C
:10056800E830B2000330B3000030B4000030B5000A
:100578003208AD023308031C330FC32AC42AAE0263
:100588003408031C340FC92ACA2AAF023508031CD1
:10059800350FCF2AD02AB0020130B20031085107F6
:1005A800B3000030031801305207B4003308840048
:1005B8008317341C831332088007732B00303002F2
:1005C800031DF02A00302F02031DF02A00302E02EE
:1005D800031DF02A64302D02031CF32AF42A292B68
:1005E8006430B2000030B3000030B4000030B50011
:1005F8003208AD023308031C330F032B042BAE0261
:100608003408031C340F092B0A2BAF023508031CCE
:10061800350F0F2B102BB0020130B2003108013E0C
:10062800B300003003180130B40033085107B50097
:1006380034080318340A5207B600350884008317B3
:10064800361C831332088007732B00303002031DD9
:10065800372B00302F02031D372B00302E02031DCD
:10066800372B0A302D02031C3A2B3B2B732B0A30F5
:10067800B2000030B3000030B4000030B5003208DA
:10068800AD023308031C330F4A2B4B2BAE02340840
:10069800031C340F502B512BAF023508031C350FA8
:1006A800562B572BB0020130B2003108023EB3007E
:1006B800003003180130B40033085107B50034087E
:1006C8000318340A5207B600350884008317361C0D
:1006D800831332088007732B732B732B732B003013
:1006E8003002031D812B00302F02031D812B0030A7
:1006F8002E02031D812B0A302D020318842B852B13
:10070800A22A862B2D08B2003108033EB300003020
:1007180003180130B40033085107B5003408031832
:10072800340A5207B6003508840083133618831735
:100738003208800008000A128A1193260A128A11C8
:1007480083120313071103300A128A11E0250A12D3
:100758008A118312031323080A128A11E0250A1248
:100768008A118312031322080A128A11E0250A1239
:100778008A1183120313AA01AB01E12BFF300A127D
:100788008A11E0250A128A1183120313A6002A0887
:100798005107A7002B0803182B0A5207A80027089F
:1007A8008400831328188317260880000130AA07BD
:1007B8000318AB0A0030AB07E12B2209A600230976
:1007C800A700A60A0319A70A24082607A8002508CF
:1007D8000318250A2707A9002B082902031DF62B51
:1007E8002A0828020318F92BFA2BC22B0715080030
:1008000004308A000408840A8207003452346534B4
:100810007434723469346534763465346434203425
:1008200056346F346C3474346134673465347334E3
:100830003A342034203420342034203400345734E7
:100840007234693474346534203443346F346C3416
:100850006C346934733469346F346E3420344F34FB
:1008600063346334753472346534643400344C3426
:100870006F346734673469346E34673420345634E7
:100880006F346C3474346134673465343A342034F2
:10089000003477347234693474346534203463340A
:1008A0006F346D3470346C346534743465340034B2
:1008B000003083120313AC000030AB000030AA00FC
:1008C0000030A900632C201C662C672C7F2C240888
:1008D000A907250803110318013E0319702CAA0764
:1008E000260803110318013E0319772CAB072708CC
:1008F00003110318013E03197E2CAC077F2C013035
:10090000A8000310A40DA50DA60DA70DA80B812C02
:1009100001300310A30CA20CA10CA00CFF3E031D80
:10092000892C2308220421042004031D982C992CCF
:10093000632C9A2C2C08A3002B08A2002A08A100E3
:100940002908A000A32C080083120313A900071193
:1009500002300A128A11E0250A128A118312031347
:1009600027080A128A11E0250A128A11831203133A
:1009700026080A128A11E0250A128A11831203132B
:10098000AA01DA2C4F0884008317501C8313000837
:100990000A128A11E0250A128A1101308312031308
:1009A000CF070318D00A0030D0070130A80028086C
:1009B000AA07DA2C29082A02031CDF2CE02CC22CFF
:1009C00007150A128A1181260A128A110800831259
:1009D0000313071030300A128A11F6250A128A1101
:1009E00030300A128A11F6250A128A1130300A12A2
:1009F0008A11F6250A128A1138300A128A11F62550
:100A00000A128A110C300A128A11F6250A128A116A
:100A100001300A128A11F6250A128A1106300A12CA
:100A20008A11F6250A128A1102300A128A11F62555
:100A30000A128A11080083120313A6000714332D2B
:100A4000260884000A128A1100240A128A110A1246
:100A50008A11F6250A128A11013083120313A400A9
:100A60002408A607332D260884000A128A110024C0
:100A70000A128A110038031D3E2D3F2D202D402DD6
:100A80008230A500DD30A400A40B442DA50B442D1D
:100A9000492D08008C1D4D2D4E2D4F2D8C11941F6E
:100AA000522D532D6E2D1A300A128A1179250A12F1
:100AB0008A113330F900BC30F8001030F700F70B22
:100AC0005F2DF80B5F2DF90B5F2D0A128A115B2643
:100AD0000A128A118312031394136E2D7D08FF00EE
:100AE0007C088A007B0884007A0E8300FE0E7E0E4E
:100AF0000900F6008312031307148F2D7608840073
:100B00000A128A1100240A128A110A128A11212655
:100B10000A128A110130F4007408F6078F2D760846
:100B200084000A128A1100240A128A110038031D57
:100B30009A2D9B2D7E2D9C2D8230F500DD30F4000A
:100B4000F40BA02DF50BA02DA52D08008312031387
:100B50001F15AA2D1F19AD2DAE2DAA2DAF2D831651
:100B600003131E0883120313A000A1011E08A20094
:100B7000A3012208A300A20120082204CB0021081F
:100B80002304CC00CD01CC1BCD034D08CE000800C2
:100B900083120313071105300A128A11E0250A1285
:100BA0008A11FF300A128A11E0250A128A11831273
:100BB0000313A2002208A30007152308DF2D080055
:100BC00083120313A10021089300E62D831603135B
:100BD000141CEB2DEC2DE62DED2D831203131308C1
:100BE000A0002008A1002108F52D0800831203139E
:100BF000A300230886000A128A1148260A128A11C5
:100C0000823083120313A200DD30A100A10B062E57
:100C1000A20B062E0B2E08008312031307100130BF
:100C20000A128A11F6250A128A11823083120313DE
:100C3000A500DD30A400A40B1B2EA50B1B2E202E1F
:100C40000800F30073088312031386000A128A1146
:100C50006E260A128A118230F200DD30F100F10BAB
:100C60002F2EF20B2F2E342E080001308316031383
:100C70008500860187018F309F00831203139F1226
:100C80009F171F131F142130A000A00B452E080032
:100C900083120313070887142130A000A00B4E2EE7
:100CA0008312031387102130A000A00B552E83124E
:100CB00003138714080083120313071001300A126C
:100CC0008A1121260A128A118230F500DD30F400E3
:100CD000F40B682EF50B682E6D2E0800831203139B
:100CE000070887142130F000F00B742E83120313D1
:100CF00087102130F000F00B7B2E83120313871432
:100D000008000A128A11C8250A128A1101398312B1
:100D10000313A4002408A500A508031D902E912EFE
:100D2000812E922E080083120313071104300A1239
:100D30008A11E0250A128A1183120313071508008D
:100D400083120313071106300A128A11E0250A12D2
:100D50008A11831203130715080083120313200856
:100D6000303EA00021080318013E003EA100B82E2D
:100D7000080083120313A40007102408803E0A12FF
:100D80008A11F6250A128A11080083120313A4009F
:100D9000071424080A128A11F6250A128A1108007B
:100DA000CB01CC01CD01CE01CF01D00183010A12CC
:040DB0008A11152867
:02400E007AFF37
:00000001FF
